{
  "_format": "hh-sol-artifact-1",
  "contractName": "Dwitter",
  "sourceName": "contracts/Dwitter.sol",
  "abi": [
    {
      "inputs": [
        {
          "internalType": "uint256",
          "name": "",
          "type": "uint256"
        }
      ],
      "name": "dweets",
      "outputs": [
        {
          "internalType": "address",
          "name": "author",
          "type": "address"
        },
        {
          "internalType": "string",
          "name": "content",
          "type": "string"
        },
        {
          "internalType": "uint256",
          "name": "timestamp",
          "type": "uint256"
        },
        {
          "internalType": "uint256",
          "name": "likes",
          "type": "uint256"
        }
      ],
      "stateMutability": "view",
      "type": "function"
    },
    {
      "inputs": [],
      "name": "getDweets",
      "outputs": [
        {
          "components": [
            {
              "internalType": "address",
              "name": "author",
              "type": "address"
            },
            {
              "internalType": "string",
              "name": "content",
              "type": "string"
            },
            {
              "internalType": "uint256",
              "name": "timestamp",
              "type": "uint256"
            },
            {
              "internalType": "uint256",
              "name": "likes",
              "type": "uint256"
            }
          ],
          "internalType": "struct Dwitter.Dweet[]",
          "name": "",
          "type": "tuple[]"
        }
      ],
      "stateMutability": "view",
      "type": "function"
    },
    {
      "inputs": [
        {
          "internalType": "address",
          "name": "_wallet",
          "type": "address"
        }
      ],
      "name": "getUser",
      "outputs": [
        {
          "components": [
            {
              "internalType": "address",
              "name": "wallet",
              "type": "address"
            },
            {
              "internalType": "string",
              "name": "name",
              "type": "string"
            },
            {
              "internalType": "string",
              "name": "username",
              "type": "string"
            },
            {
              "internalType": "string",
              "name": "bio",
              "type": "string"
            },
            {
              "internalType": "string",
              "name": "avatar",
              "type": "string"
            }
          ],
          "internalType": "struct Dwitter.User",
          "name": "",
          "type": "tuple"
        }
      ],
      "stateMutability": "view",
      "type": "function"
    },
    {
      "inputs": [
        {
          "internalType": "string",
          "name": "_content",
          "type": "string"
        }
      ],
      "name": "postDweet",
      "outputs": [],
      "stateMutability": "nonpayable",
      "type": "function"
    },
    {
      "inputs": [
        {
          "internalType": "string",
          "name": "_username",
          "type": "string"
        },
        {
          "internalType": "string",
          "name": "_name",
          "type": "string"
        },
        {
          "internalType": "string",
          "name": "_bio",
          "type": "string"
        },
        {
          "internalType": "string",
          "name": "_avatar",
          "type": "string"
        }
      ],
      "name": "signup",
      "outputs": [],
      "stateMutability": "nonpayable",
      "type": "function"
    },
    {
      "inputs": [
        {
          "internalType": "address",
          "name": "",
          "type": "address"
        }
      ],
      "name": "usernames",
      "outputs": [
        {
          "internalType": "string",
          "name": "",
          "type": "string"
        }
      ],
      "stateMutability": "view",
      "type": "function"
    },
    {
      "inputs": [
        {
          "internalType": "string",
          "name": "",
          "type": "string"
        }
      ],
      "name": "users",
      "outputs": [
        {
          "internalType": "address",
          "name": "wallet",
          "type": "address"
        },
        {
          "internalType": "string",
          "name": "name",
          "type": "string"
        },
        {
          "internalType": "string",
          "name": "username",
          "type": "string"
        },
        {
          "internalType": "string",
          "name": "bio",
          "type": "string"
        },
        {
          "internalType": "string",
          "name": "avatar",
          "type": "string"
        }
      ],
      "stateMutability": "view",
      "type": "function"
    }
  ],
  "bytecode": "0x608060405234801561001057600080fd5b50611ae2806100206000396000f3fe608060405234801561001057600080fd5b506004361061007d5760003560e01c80636f77926b1161005b5780636f77926b14610105578063d7798e5b14610135578063ee91877c14610153578063fcf58fa5146101835761007d565b806337dc190c14610082578063675164a4146100b5578063689e1c03146100d1575b600080fd5b61009c60048036038101906100979190611177565b61019f565b6040516100ac94939291906115c1565b60405180910390f35b6100cf60048036038101906100ca9190611073565b610287565b005b6100eb60048036038101906100e69190611073565b610484565b6040516100fc959493929190611552565b60405180910390f35b61011f600480360381019061011a919061104a565b610710565b60405161012c91906116f1565b60405180910390f35b61013d610a24565b60405161014a919061160d565b60405180910390f35b61016d6004803603810190610168919061104a565b610b7f565b60405161017a919061162f565b60405180910390f35b61019d600480360381019061019891906110b4565b610c1f565b005b600081815481106101af57600080fd5b90600052602060002090600402016000915090508060000160009054906101000a900473ffffffffffffffffffffffffffffffffffffffff16908060010180546101f89061186d565b80601f01602080910402602001604051908101604052809291908181526020018280546102249061186d565b80156102715780601f1061024657610100808354040283529160200191610271565b820191906000526020600020905b81548152906001019060200180831161025457829003601f168201915b5050505050908060020154908060030154905084565b6000600160003373ffffffffffffffffffffffffffffffffffffffff1673ffffffffffffffffffffffffffffffffffffffff16815260200190815260200160002080546102d39061186d565b905011610315576040517f08c379a000000000000000000000000000000000000000000000000000000000815260040161030c90611671565b60405180910390fd5b6000815111610359576040517f08c379a000000000000000000000000000000000000000000000000000000000815260040161035090611651565b60405180910390fd5b608c8151111561039e576040517f08c379a0000000000000000000000000000000000000000000000000000000008152600401610395906116b1565b60405180910390fd5b600060405180608001604052803373ffffffffffffffffffffffffffffffffffffffff16815260200183815260200142815260200160008152509050600081908060018154018082558091505060019003906000526020600020906004020160009091909190915060008201518160000160006101000a81548173ffffffffffffffffffffffffffffffffffffffff021916908373ffffffffffffffffffffffffffffffffffffffff1602179055506020820151816001019080519060200190610469929190610ed0565b50604082015181600201556060820151816003015550505050565b6002818051602081018201805184825260208301602085012081835280955050505050506000915090508060000160009054906101000a900473ffffffffffffffffffffffffffffffffffffffff16908060010180546104e39061186d565b80601f016020809104026020016040519081016040528092919081815260200182805461050f9061186d565b801561055c5780601f106105315761010080835404028352916020019161055c565b820191906000526020600020905b81548152906001019060200180831161053f57829003601f168201915b5050505050908060020180546105719061186d565b80601f016020809104026020016040519081016040528092919081815260200182805461059d9061186d565b80156105ea5780601f106105bf576101008083540402835291602001916105ea565b820191906000526020600020905b8154815290600101906020018083116105cd57829003601f168201915b5050505050908060030180546105ff9061186d565b80601f016020809104026020016040519081016040528092919081815260200182805461062b9061186d565b80156106785780601f1061064d57610100808354040283529160200191610678565b820191906000526020600020905b81548152906001019060200180831161065b57829003601f168201915b50505050509080600401805461068d9061186d565b80601f01602080910402602001604051908101604052809291908181526020018280546106b99061186d565b80156107065780601f106106db57610100808354040283529160200191610706565b820191906000526020600020905b8154815290600101906020018083116106e957829003601f168201915b5050505050905085565b610718610f56565b6002600160008473ffffffffffffffffffffffffffffffffffffffff1673ffffffffffffffffffffffffffffffffffffffff168152602001908152602001600020604051610766919061153b565b90815260200160405180910390206040518060a00160405290816000820160009054906101000a900473ffffffffffffffffffffffffffffffffffffffff1673ffffffffffffffffffffffffffffffffffffffff1673ffffffffffffffffffffffffffffffffffffffff1681526020016001820180546107e59061186d565b80601f01602080910402602001604051908101604052809291908181526020018280546108119061186d565b801561085e5780601f106108335761010080835404028352916020019161085e565b820191906000526020600020905b81548152906001019060200180831161084157829003601f168201915b505050505081526020016002820180546108779061186d565b80601f01602080910402602001604051908101604052809291908181526020018280546108a39061186d565b80156108f05780601f106108c5576101008083540402835291602001916108f0565b820191906000526020600020905b8154815290600101906020018083116108d357829003601f168201915b505050505081526020016003820180546109099061186d565b80601f01602080910402602001604051908101604052809291908181526020018280546109359061186d565b80156109825780601f1061095757610100808354040283529160200191610982565b820191906000526020600020905b81548152906001019060200180831161096557829003601f168201915b5050505050815260200160048201805461099b9061186d565b80601f01602080910402602001604051908101604052809291908181526020018280546109c79061186d565b8015610a145780601f106109e957610100808354040283529160200191610a14565b820191906000526020600020905b8154815290600101906020018083116109f757829003601f168201915b5050505050815250509050919050565b60606000805480602002602001604051908101604052809291908181526020016000905b82821015610b7657838290600052602060002090600402016040518060800160405290816000820160009054906101000a900473ffffffffffffffffffffffffffffffffffffffff1673ffffffffffffffffffffffffffffffffffffffff1673ffffffffffffffffffffffffffffffffffffffff168152602001600182018054610ad19061186d565b80601f0160208091040260200160405190810160405280929190818152602001828054610afd9061186d565b8015610b4a5780601f10610b1f57610100808354040283529160200191610b4a565b820191906000526020600020905b815481529060010190602001808311610b2d57829003601f168201915b505050505081526020016002820154815260200160038201548152505081526020019060010190610a48565b50505050905090565b60016020528060005260406000206000915090508054610b9e9061186d565b80601f0160208091040260200160405190810160405280929190818152602001828054610bca9061186d565b8015610c175780601f10610bec57610100808354040283529160200191610c17565b820191906000526020600020905b815481529060010190602001808311610bfa57829003601f168201915b505050505081565b6000600160003373ffffffffffffffffffffffffffffffffffffffff1673ffffffffffffffffffffffffffffffffffffffff1681526020019081526020016000208054610c6b9061186d565b905014610cad576040517f08c379a0000000000000000000000000000000000000000000000000000000008152600401610ca490611691565b60405180910390fd5b600073ffffffffffffffffffffffffffffffffffffffff16600285604051610cd59190611524565b908152602001604051809103902060000160009054906101000a900473ffffffffffffffffffffffffffffffffffffffff1673ffffffffffffffffffffffffffffffffffffffff1614610d5d576040517f08c379a0000000000000000000000000000000000000000000000000000000008152600401610d54906116d1565b60405180910390fd5b6040518060a001604052803373ffffffffffffffffffffffffffffffffffffffff16815260200184815260200185815260200183815260200182815250600285604051610daa9190611524565b908152602001604051809103902060008201518160000160006101000a81548173ffffffffffffffffffffffffffffffffffffffff021916908373ffffffffffffffffffffffffffffffffffffffff1602179055506020820151816001019080519060200190610e1b929190610ed0565b506040820151816002019080519060200190610e38929190610ed0565b506060820151816003019080519060200190610e55929190610ed0565b506080820151816004019080519060200190610e72929190610ed0565b5090505083600160003373ffffffffffffffffffffffffffffffffffffffff1673ffffffffffffffffffffffffffffffffffffffff1681526020019081526020016000209080519060200190610ec9929190610ed0565b5050505050565b828054610edc9061186d565b90600052602060002090601f016020900481019282610efe5760008555610f45565b82601f10610f1757805160ff1916838001178555610f45565b82800160010185558215610f45579182015b82811115610f44578251825591602001919060010190610f29565b5b509050610f529190610f9b565b5090565b6040518060a00160405280600073ffffffffffffffffffffffffffffffffffffffff168152602001606081526020016060815260200160608152602001606081525090565b5b80821115610fb4576000816000905550600101610f9c565b5090565b6000610fcb610fc684611738565b611713565b905082815260208101848484011115610fe357600080fd5b610fee84828561182b565b509392505050565b60008135905061100581611a7e565b92915050565b600082601f83011261101c57600080fd5b813561102c848260208601610fb8565b91505092915050565b60008135905061104481611a95565b92915050565b60006020828403121561105c57600080fd5b600061106a84828501610ff6565b91505092915050565b60006020828403121561108557600080fd5b600082013567ffffffffffffffff81111561109f57600080fd5b6110ab8482850161100b565b91505092915050565b600080600080608085870312156110ca57600080fd5b600085013567ffffffffffffffff8111156110e457600080fd5b6110f08782880161100b565b945050602085013567ffffffffffffffff81111561110d57600080fd5b6111198782880161100b565b935050604085013567ffffffffffffffff81111561113657600080fd5b6111428782880161100b565b925050606085013567ffffffffffffffff81111561115f57600080fd5b61116b8782880161100b565b91505092959194509250565b60006020828403121561118957600080fd5b600061119784828501611035565b91505092915050565b60006111ac8383611418565b905092915050565b6111bd816117ef565b82525050565b6111cc816117ef565b82525050565b60006111dd8261178e565b6111e781856117b1565b9350836020820285016111f985611769565b8060005b85811015611235578484038952815161121685826111a0565b9450611221836117a4565b925060208a019950506001810190506111fd565b50829750879550505050505092915050565b600061125282611799565b61125c81856117c2565b935061126c81856020860161183a565b6112758161192e565b840191505092915050565b600061128b82611799565b61129581856117d3565b93506112a581856020860161183a565b6112ae8161192e565b840191505092915050565b60006112c482611799565b6112ce81856117e4565b93506112de81856020860161183a565b80840191505092915050565b600081546112f78161186d565b61130181866117e4565b9450600182166000811461131c576001811461132d57611360565b60ff19831686528186019350611360565b61133685611779565b60005b8381101561135857815481890152600182019150602081019050611339565b838801955050505b50505092915050565b60006113766029836117d3565b91506113818261193f565b604082019050919050565b60006113996021836117d3565b91506113a48261198e565b604082019050919050565b60006113bc6013836117d3565b91506113c7826119dd565b602082019050919050565b60006113df6017836117d3565b91506113ea82611a06565b602082019050919050565b6000611402602a836117d3565b915061140d82611a2f565b604082019050919050565b600060808301600083015161143060008601826111b4565b50602083015184820360208601526114488282611247565b915050604083015161145d6040860182611506565b5060608301516114706060860182611506565b508091505092915050565b600060a08301600083015161149360008601826111b4565b50602083015184820360208601526114ab8282611247565b915050604083015184820360408601526114c58282611247565b915050606083015184820360608601526114df8282611247565b915050608083015184820360808601526114f98282611247565b9150508091505092915050565b61150f81611821565b82525050565b61151e81611821565b82525050565b600061153082846112b9565b915081905092915050565b600061154782846112ea565b915081905092915050565b600060a08201905061156760008301886111c3565b81810360208301526115798187611280565b9050818103604083015261158d8186611280565b905081810360608301526115a18185611280565b905081810360808301526115b58184611280565b90509695505050505050565b60006080820190506115d660008301876111c3565b81810360208301526115e88186611280565b90506115f76040830185611515565b6116046060830184611515565b95945050505050565b6000602082019050818103600083015261162781846111d2565b905092915050565b600060208201905081810360008301526116498184611280565b905092915050565b6000602082019050818103600083015261166a81611369565b9050919050565b6000602082019050818103600083015261168a8161138c565b9050919050565b600060208201905081810360008301526116aa816113af565b9050919050565b600060208201905081810360008301526116ca816113d2565b9050919050565b600060208201905081810360008301526116ea816113f5565b9050919050565b6000602082019050818103600083015261170b818461147b565b905092915050565b600061171d61172e565b9050611729828261189f565b919050565b6000604051905090565b600067ffffffffffffffff821115611753576117526118ff565b5b61175c8261192e565b9050602081019050919050565b6000819050602082019050919050565b60008190508160005260206000209050919050565b600081519050919050565b600081519050919050565b6000602082019050919050565b600082825260208201905092915050565b600082825260208201905092915050565b600082825260208201905092915050565b600081905092915050565b60006117fa82611801565b9050919050565b600073ffffffffffffffffffffffffffffffffffffffff82169050919050565b6000819050919050565b82818337600083830152505050565b60005b8381101561185857808201518184015260208101905061183d565b83811115611867576000848401525b50505050565b6000600282049050600182168061188557607f821691505b60208210811415611899576118986118d0565b5b50919050565b6118a88261192e565b810181811067ffffffffffffffff821117156118c7576118c66118ff565b5b80604052505050565b7f4e487b7100000000000000000000000000000000000000000000000000000000600052602260045260246000fd5b7f4e487b7100000000000000000000000000000000000000000000000000000000600052604160045260246000fd5b6000601f19601f8301169050919050565b7f596f75206d75737420777269746520736f6d657468696e6720746f20706f737460008201527f20612064776565742e0000000000000000000000000000000000000000000000602082015250565b7f596f75206d757374207369676e20757020746f20706f7374206120647765657460008201527f2e00000000000000000000000000000000000000000000000000000000000000602082015250565b7f5573657220616c72656164792065786973747300000000000000000000000000600082015250565b7f596f757220647765657420697320746f6f206c6f6e672e000000000000000000600082015250565b7f557365726e616d652069732074616b656e2c20706c656173652074727920616e60008201527f6f74686572206f6e652e00000000000000000000000000000000000000000000602082015250565b611a87816117ef565b8114611a9257600080fd5b50565b611a9e81611821565b8114611aa957600080fd5b5056fea2646970667358221220655f0a3e8e38ee75e0d3b3e10e091d1e0780768f029909c5f09256cf82c3dbfb64736f6c63430008040033",
  "linkReferences": {},
  "deployedLinkReferences": {}
}